{
  "address": "0x0A69F1B7eAA3C772e72314b1524E57D6aA5889eE",
  "abi": [
    {
      "inputs": [
        {
          "internalType": "address",
          "name": "_signer",
          "type": "address"
        },
        {
          "internalType": "uint256",
          "name": "_supply",
          "type": "uint256"
        },
        {
          "internalType": "uint256",
          "name": "_maxMint",
          "type": "uint256"
        },
        {
          "internalType": "string",
          "name": "initBaseURI",
          "type": "string"
        }
      ],
      "stateMutability": "nonpayable",
      "type": "constructor"
    },
    {
      "inputs": [],
      "name": "ApprovalCallerNotOwnerNorApproved",
      "type": "error"
    },
    {
      "inputs": [],
      "name": "ApprovalQueryForNonexistentToken",
      "type": "error"
    },
    {
      "inputs": [],
      "name": "ApprovalToCurrentOwner",
      "type": "error"
    },
    {
      "inputs": [],
      "name": "ApproveToCaller",
      "type": "error"
    },
    {
      "inputs": [],
      "name": "BalanceQueryForZeroAddress",
      "type": "error"
    },
    {
      "inputs": [],
      "name": "MintToZeroAddress",
      "type": "error"
    },
    {
      "inputs": [],
      "name": "MintZeroQuantity",
      "type": "error"
    },
    {
      "inputs": [],
      "name": "OwnerQueryForNonexistentToken",
      "type": "error"
    },
    {
      "inputs": [],
      "name": "TransferCallerNotOwnerNorApproved",
      "type": "error"
    },
    {
      "inputs": [],
      "name": "TransferFromIncorrectOwner",
      "type": "error"
    },
    {
      "inputs": [],
      "name": "TransferToNonERC721ReceiverImplementer",
      "type": "error"
    },
    {
      "inputs": [],
      "name": "TransferToZeroAddress",
      "type": "error"
    },
    {
      "inputs": [],
      "name": "URIQueryForNonexistentToken",
      "type": "error"
    },
    {
      "anonymous": false,
      "inputs": [
        {
          "indexed": true,
          "internalType": "address",
          "name": "owner",
          "type": "address"
        },
        {
          "indexed": true,
          "internalType": "address",
          "name": "approved",
          "type": "address"
        },
        {
          "indexed": true,
          "internalType": "uint256",
          "name": "tokenId",
          "type": "uint256"
        }
      ],
      "name": "Approval",
      "type": "event"
    },
    {
      "anonymous": false,
      "inputs": [
        {
          "indexed": true,
          "internalType": "address",
          "name": "owner",
          "type": "address"
        },
        {
          "indexed": true,
          "internalType": "address",
          "name": "operator",
          "type": "address"
        },
        {
          "indexed": false,
          "internalType": "bool",
          "name": "approved",
          "type": "bool"
        }
      ],
      "name": "ApprovalForAll",
      "type": "event"
    },
    {
      "anonymous": false,
      "inputs": [
        {
          "indexed": false,
          "internalType": "string",
          "name": "newBaseURI",
          "type": "string"
        }
      ],
      "name": "BaseURIChanged",
      "type": "event"
    },
    {
      "anonymous": false,
      "inputs": [
        {
          "indexed": false,
          "internalType": "address",
          "name": "minter",
          "type": "address"
        },
        {
          "indexed": false,
          "internalType": "uint256",
          "name": "quantity",
          "type": "uint256"
        }
      ],
      "name": "Minted",
      "type": "event"
    },
    {
      "anonymous": false,
      "inputs": [
        {
          "indexed": true,
          "internalType": "address",
          "name": "previousOwner",
          "type": "address"
        },
        {
          "indexed": true,
          "internalType": "address",
          "name": "newOwner",
          "type": "address"
        }
      ],
      "name": "OwnershipTransferred",
      "type": "event"
    },
    {
      "anonymous": false,
      "inputs": [
        {
          "indexed": false,
          "internalType": "address",
          "name": "account",
          "type": "address"
        }
      ],
      "name": "Paused",
      "type": "event"
    },
    {
      "anonymous": false,
      "inputs": [
        {
          "indexed": true,
          "internalType": "address",
          "name": "from",
          "type": "address"
        },
        {
          "indexed": true,
          "internalType": "address",
          "name": "to",
          "type": "address"
        },
        {
          "indexed": true,
          "internalType": "uint256",
          "name": "tokenId",
          "type": "uint256"
        }
      ],
      "name": "Transfer",
      "type": "event"
    },
    {
      "anonymous": false,
      "inputs": [
        {
          "indexed": false,
          "internalType": "address",
          "name": "account",
          "type": "address"
        }
      ],
      "name": "Unpaused",
      "type": "event"
    },
    {
      "inputs": [
        {
          "internalType": "address",
          "name": "to",
          "type": "address"
        },
        {
          "internalType": "uint256",
          "name": "tokenId",
          "type": "uint256"
        }
      ],
      "name": "approve",
      "outputs": [],
      "stateMutability": "nonpayable",
      "type": "function"
    },
    {
      "inputs": [
        {
          "internalType": "address",
          "name": "owner",
          "type": "address"
        }
      ],
      "name": "balanceOf",
      "outputs": [
        {
          "internalType": "uint256",
          "name": "",
          "type": "uint256"
        }
      ],
      "stateMutability": "view",
      "type": "function"
    },
    {
      "inputs": [],
      "name": "baseURI",
      "outputs": [
        {
          "internalType": "string",
          "name": "",
          "type": "string"
        }
      ],
      "stateMutability": "view",
      "type": "function"
    },
    {
      "inputs": [
        {
          "internalType": "uint256",
          "name": "tokenId",
          "type": "uint256"
        }
      ],
      "name": "getApproved",
      "outputs": [
        {
          "internalType": "address",
          "name": "",
          "type": "address"
        }
      ],
      "stateMutability": "view",
      "type": "function"
    },
    {
      "inputs": [
        {
          "internalType": "address",
          "name": "owner",
          "type": "address"
        },
        {
          "internalType": "address",
          "name": "operator",
          "type": "address"
        }
      ],
      "name": "isApprovedForAll",
      "outputs": [
        {
          "internalType": "bool",
          "name": "",
          "type": "bool"
        }
      ],
      "stateMutability": "view",
      "type": "function"
    },
    {
      "inputs": [],
      "name": "maxMint",
      "outputs": [
        {
          "internalType": "uint256",
          "name": "",
          "type": "uint256"
        }
      ],
      "stateMutability": "view",
      "type": "function"
    },
    {
      "inputs": [],
      "name": "maxSupply",
      "outputs": [
        {
          "internalType": "uint256",
          "name": "",
          "type": "uint256"
        }
      ],
      "stateMutability": "view",
      "type": "function"
    },
    {
      "inputs": [
        {
          "internalType": "uint256",
          "name": "quantity",
          "type": "uint256"
        },
        {
          "internalType": "string",
          "name": "salt",
          "type": "string"
        },
        {
          "internalType": "bytes",
          "name": "token",
          "type": "bytes"
        }
      ],
      "name": "mint",
      "outputs": [],
      "stateMutability": "payable",
      "type": "function"
    },
    {
      "inputs": [],
      "name": "name",
      "outputs": [
        {
          "internalType": "string",
          "name": "",
          "type": "string"
        }
      ],
      "stateMutability": "view",
      "type": "function"
    },
    {
      "inputs": [
        {
          "internalType": "address",
          "name": "owner",
          "type": "address"
        }
      ],
      "name": "numberMinted",
      "outputs": [
        {
          "internalType": "uint256",
          "name": "",
          "type": "uint256"
        }
      ],
      "stateMutability": "view",
      "type": "function"
    },
    {
      "inputs": [],
      "name": "owner",
      "outputs": [
        {
          "internalType": "address",
          "name": "",
          "type": "address"
        }
      ],
      "stateMutability": "view",
      "type": "function"
    },
    {
      "inputs": [
        {
          "internalType": "uint256",
          "name": "tokenId",
          "type": "uint256"
        }
      ],
      "name": "ownerOf",
      "outputs": [
        {
          "internalType": "address",
          "name": "",
          "type": "address"
        }
      ],
      "stateMutability": "view",
      "type": "function"
    },
    {
      "inputs": [],
      "name": "pause",
      "outputs": [],
      "stateMutability": "nonpayable",
      "type": "function"
    },
    {
      "inputs": [],
      "name": "paused",
      "outputs": [
        {
          "internalType": "bool",
          "name": "",
          "type": "bool"
        }
      ],
      "stateMutability": "view",
      "type": "function"
    },
    {
      "inputs": [],
      "name": "price",
      "outputs": [
        {
          "internalType": "uint256",
          "name": "",
          "type": "uint256"
        }
      ],
      "stateMutability": "view",
      "type": "function"
    },
    {
      "inputs": [],
      "name": "renounceOwnership",
      "outputs": [],
      "stateMutability": "nonpayable",
      "type": "function"
    },
    {
      "inputs": [
        {
          "internalType": "address[]",
          "name": "recipients",
          "type": "address[]"
        }
      ],
      "name": "reserve",
      "outputs": [],
      "stateMutability": "nonpayable",
      "type": "function"
    },
    {
      "inputs": [
        {
          "internalType": "address",
          "name": "from",
          "type": "address"
        },
        {
          "internalType": "address",
          "name": "to",
          "type": "address"
        },
        {
          "internalType": "uint256",
          "name": "tokenId",
          "type": "uint256"
        }
      ],
      "name": "safeTransferFrom",
      "outputs": [],
      "stateMutability": "nonpayable",
      "type": "function"
    },
    {
      "inputs": [
        {
          "internalType": "address",
          "name": "from",
          "type": "address"
        },
        {
          "internalType": "address",
          "name": "to",
          "type": "address"
        },
        {
          "internalType": "uint256",
          "name": "tokenId",
          "type": "uint256"
        },
        {
          "internalType": "bytes",
          "name": "_data",
          "type": "bytes"
        }
      ],
      "name": "safeTransferFrom",
      "outputs": [],
      "stateMutability": "nonpayable",
      "type": "function"
    },
    {
      "inputs": [
        {
          "internalType": "address",
          "name": "operator",
          "type": "address"
        },
        {
          "internalType": "bool",
          "name": "approved",
          "type": "bool"
        }
      ],
      "name": "setApprovalForAll",
      "outputs": [],
      "stateMutability": "nonpayable",
      "type": "function"
    },
    {
      "inputs": [
        {
          "internalType": "string",
          "name": "newBaseURI",
          "type": "string"
        }
      ],
      "name": "setBaseURI",
      "outputs": [],
      "stateMutability": "nonpayable",
      "type": "function"
    },
    {
      "inputs": [],
      "name": "signer",
      "outputs": [
        {
          "internalType": "address",
          "name": "",
          "type": "address"
        }
      ],
      "stateMutability": "view",
      "type": "function"
    },
    {
      "inputs": [
        {
          "internalType": "bytes4",
          "name": "interfaceId",
          "type": "bytes4"
        }
      ],
      "name": "supportsInterface",
      "outputs": [
        {
          "internalType": "bool",
          "name": "",
          "type": "bool"
        }
      ],
      "stateMutability": "view",
      "type": "function"
    },
    {
      "inputs": [],
      "name": "symbol",
      "outputs": [
        {
          "internalType": "string",
          "name": "",
          "type": "string"
        }
      ],
      "stateMutability": "view",
      "type": "function"
    },
    {
      "inputs": [
        {
          "internalType": "uint256",
          "name": "tokenId",
          "type": "uint256"
        }
      ],
      "name": "tokenURI",
      "outputs": [
        {
          "internalType": "string",
          "name": "",
          "type": "string"
        }
      ],
      "stateMutability": "view",
      "type": "function"
    },
    {
      "inputs": [],
      "name": "totalSupply",
      "outputs": [
        {
          "internalType": "uint256",
          "name": "",
          "type": "uint256"
        }
      ],
      "stateMutability": "view",
      "type": "function"
    },
    {
      "inputs": [
        {
          "internalType": "address",
          "name": "from",
          "type": "address"
        },
        {
          "internalType": "address",
          "name": "to",
          "type": "address"
        },
        {
          "internalType": "uint256",
          "name": "tokenId",
          "type": "uint256"
        }
      ],
      "name": "transferFrom",
      "outputs": [],
      "stateMutability": "nonpayable",
      "type": "function"
    },
    {
      "inputs": [
        {
          "internalType": "address",
          "name": "newOwner",
          "type": "address"
        }
      ],
      "name": "transferOwnership",
      "outputs": [],
      "stateMutability": "nonpayable",
      "type": "function"
    },
    {
      "inputs": [],
      "name": "unpause",
      "outputs": [],
      "stateMutability": "nonpayable",
      "type": "function"
    },
    {
      "inputs": [
        {
          "internalType": "uint256",
          "name": "newMaxMint",
          "type": "uint256"
        }
      ],
      "name": "updateMaxMint",
      "outputs": [],
      "stateMutability": "nonpayable",
      "type": "function"
    },
    {
      "inputs": [
        {
          "internalType": "uint256",
          "name": "newPrice",
          "type": "uint256"
        }
      ],
      "name": "updatePrice",
      "outputs": [],
      "stateMutability": "nonpayable",
      "type": "function"
    },
    {
      "inputs": [
        {
          "internalType": "uint256",
          "name": "newSupply",
          "type": "uint256"
        }
      ],
      "name": "updateSupply",
      "outputs": [],
      "stateMutability": "nonpayable",
      "type": "function"
    },
    {
      "inputs": [
        {
          "internalType": "address payable",
          "name": "recipient",
          "type": "address"
        }
      ],
      "name": "withdraw",
      "outputs": [],
      "stateMutability": "nonpayable",
      "type": "function"
    }
  ],
  "transactionHash": "0xfff4d2f08f86ae464f6a74ea876f9d5b7aa021e820c8013004daac206704e0fc",
  "args": [
    "0xE8161C68C6c83f36c5eb44f9BB67f2Ad8CDd321d",
    43,
    1,
    "ipfs://QmTkgVTLcqU8R5jJg6NuU5MwupmiWcyESMDsDsrwkMKR4M/"
  ],
  "numDeployments": 1,
  "solcInputHash": "23fa864f30b23649263ac558f70bbc73",
  "bytecode": "0x60806040523480156200001157600080fd5b5060405162002ad238038062002ad28339810160408190526200003491620002bc565b60408051808201825260128152714d65746120466f7865732047656e6573697360701b60208083019182528351808501909452600784526609acae8c28cdef60cb1b9084015281519192916200008d9160029162000216565b508051620000a390600390602084019062000216565b5050600160005550620000b63362000112565b6008805460ff60a01b19169055600a80546001600160a01b0319166001600160a01b038616179055600b839055600c8290558051620000fd90600990602084019062000216565b506200010862000164565b5050505062000421565b600880546001600160a01b038381166001600160a01b0319831681179093556040519116919082907f8be0079c531659141344cd1fd0a4f28419497f9722a3daafe3b4186f6b6457e090600090a35050565b62000178600854600160a01b900460ff1690565b15620001bd5760405162461bcd60e51b815260206004820152601060248201526f14185d5cd8589b194e881c185d5cd95960821b604482015260640160405180910390fd5b6008805460ff60a01b1916600160a01b1790557f62e78cea01bee320cd4e420270b5ea74000d11b0c9f74754ebdbfc544b05a258620001f93390565b6040516001600160a01b03909116815260200160405180910390a1565b8280546200022490620003ce565b90600052602060002090601f01602090048101928262000248576000855562000293565b82601f106200026357805160ff191683800117855562000293565b8280016001018555821562000293579182015b828111156200029357825182559160200191906001019062000276565b50620002a1929150620002a5565b5090565b5b80821115620002a15760008155600101620002a6565b60008060008060808587031215620002d357600080fd5b84516001600160a01b0381168114620002eb57600080fd5b602086810151604088015160608901519397509095509350906001600160401b03808211156200031a57600080fd5b818801915088601f8301126200032f57600080fd5b8151818111156200034457620003446200040b565b604051601f8201601f19908116603f011681019083821181831017156200036f576200036f6200040b565b816040528281528b868487010111156200038857600080fd5b600093505b82841015620003ac57848401860151818501870152928501926200038d565b82841115620003be5760008684830101525b989b979a50959850505050505050565b600181811c90821680620003e357607f821691505b602082108114156200040557634e487b7160e01b600052602260045260246000fd5b50919050565b634e487b7160e01b600052604160045260246000fd5b6126a180620004316000396000f3fe6080604052600436106101ee5760003560e01c8063715018a61161010d578063a22cb465116100a0578063d682ed861161006f578063d682ed861461054b578063dc33e6811461056b578063e6c6df591461058b578063e985e9c5146105ab578063f2fde38b146105f457600080fd5b8063a22cb465146104d5578063b88d4fde146104f5578063c87b56dd14610515578063d5abeb011461053557600080fd5b80638d6cc56d116100dc5780638d6cc56d1461046c5780638da5cb5b1461048c57806395d89b41146104aa578063a035b1fe146104bf57600080fd5b8063715018a6146104195780637501f7411461042e578063785cc997146104445780638456cb591461045757600080fd5b806342842e0e116101855780636352211e116101545780636352211e146103a45780636bd08049146103c45780636c0360eb146103e457806370a08231146103f957600080fd5b806342842e0e1461032557806351cff8d91461034557806355f804b3146103655780635c975abb1461038557600080fd5b806318160ddd116101c157806318160ddd146102a4578063238ac933146102d057806323b872dd146102f05780633f4ba83a1461031057600080fd5b806301ffc9a7146101f357806306fdde0314610228578063081812fc1461024a578063095ea7b314610282575b600080fd5b3480156101ff57600080fd5b5061021361020e36600461227b565b610614565b60405190151581526020015b60405180910390f35b34801561023457600080fd5b5061023d610666565b60405161021f9190612492565b34801561025657600080fd5b5061026a6102653660046122f6565b6106f8565b6040516001600160a01b03909116815260200161021f565b34801561028e57600080fd5b506102a261029d3660046121db565b61073c565b005b3480156102b057600080fd5b506102c2600154600054036000190190565b60405190815260200161021f565b3480156102dc57600080fd5b50600a5461026a906001600160a01b031681565b3480156102fc57600080fd5b506102a261030b366004612088565b6107ca565b34801561031c57600080fd5b506102a26107d5565b34801561033157600080fd5b506102a2610340366004612088565b610812565b34801561035157600080fd5b506102a2610360366004612032565b61082d565b34801561037157600080fd5b506102a26103803660046122b5565b6108ed565b34801561039157600080fd5b50600854600160a01b900460ff16610213565b3480156103b057600080fd5b5061026a6103bf3660046122f6565b610961565b3480156103d057600080fd5b506102a26103df3660046122f6565b610973565b3480156103f057600080fd5b5061023d6109f2565b34801561040557600080fd5b506102c2610414366004612032565b610a80565b34801561042557600080fd5b506102a2610ace565b34801561043a57600080fd5b506102c2600c5481565b6102a261045236600461230f565b610b02565b34801561046357600080fd5b506102a2610d1e565b34801561047857600080fd5b506102a26104873660046122f6565b610d50565b34801561049857600080fd5b506008546001600160a01b031661026a565b3480156104b657600080fd5b5061023d610d7f565b3480156104cb57600080fd5b506102c2600d5481565b3480156104e157600080fd5b506102a26104f03660046121a8565b610d8e565b34801561050157600080fd5b506102a26105103660046120c9565b610e24565b34801561052157600080fd5b5061023d6105303660046122f6565b610e75565b34801561054157600080fd5b506102c2600b5481565b34801561055757600080fd5b506102a2610566366004612207565b610efa565b34801561057757600080fd5b506102c2610586366004612032565b611048565b34801561059757600080fd5b506102a26105a63660046122f6565b611076565b3480156105b757600080fd5b506102136105c636600461204f565b6001600160a01b03918216600090815260076020908152604080832093909416825291909152205460ff1690565b34801561060057600080fd5b506102a261060f366004612032565b6110e9565b60006001600160e01b031982166380ac58cd60e01b148061064557506001600160e01b03198216635b5e139f60e01b145b8061066057506301ffc9a760e01b6001600160e01b03198316145b92915050565b60606002805461067590612568565b80601f01602080910402602001604051908101604052809291908181526020018280546106a190612568565b80156106ee5780601f106106c3576101008083540402835291602001916106ee565b820191906000526020600020905b8154815290600101906020018083116106d157829003601f168201915b5050505050905090565b600061070382611184565b610720576040516333d1c03960e21b815260040160405180910390fd5b506000908152600660205260409020546001600160a01b031690565b600061074782610961565b9050806001600160a01b0316836001600160a01b0316141561077c5760405163250fdee360e21b815260040160405180910390fd5b336001600160a01b0382161480159061079c575061079a81336105c6565b155b156107ba576040516367d9dca160e11b815260040160405180910390fd5b6107c58383836111bd565b505050565b6107c5838383611219565b6008546001600160a01b031633146108085760405162461bcd60e51b81526004016107ff906124a5565b60405180910390fd5b610810611407565b565b6107c583838360405180602001604052806000815250610e24565b6008546001600160a01b031633146108575760405162461bcd60e51b81526004016107ff906124a5565b60405147906000906001600160a01b0384169083908381818185875af1925050503d80600081146108a4576040519150601f19603f3d011682016040523d82523d6000602084013e6108a9565b606091505b50509050806107c55760405162461bcd60e51b815260206004820152601060248201526f3a3930b739b332b9103330b4b632b21760811b60448201526064016107ff565b6008546001600160a01b031633146109175760405162461bcd60e51b81526004016107ff906124a5565b61092360098383611f58565b507f5411e8ebf1636d9e83d5fc4900bf80cbac82e8790da2a4c94db4895e889eedf68282604051610955929190612449565b60405180910390a15050565b600061096c826114a4565b5192915050565b6008546001600160a01b0316331461099d5760405162461bcd60e51b81526004016107ff906124a5565b6109ae600154600054036000190190565b81116109ed5760405162461bcd60e51b815260206004820152600e60248201526d696e76616c696420737570706c7960901b60448201526064016107ff565b600b55565b600980546109ff90612568565b80601f0160208091040260200160405190810160405280929190818152602001828054610a2b90612568565b8015610a785780601f10610a4d57610100808354040283529160200191610a78565b820191906000526020600020905b815481529060010190602001808311610a5b57829003601f168201915b505050505081565b60006001600160a01b038216610aa9576040516323d3ad8160e21b815260040160405180910390fd5b506001600160a01b03166000908152600560205260409020546001600160401b031690565b6008546001600160a01b03163314610af85760405162461bcd60e51b81526004016107ff906124a5565b61081060006115cb565b600854600160a01b900460ff1615610b465760405162461bcd60e51b81526020600482015260076024820152662830bab9b2b21760c91b60448201526064016107ff565b323314610b815760405162461bcd60e51b815260206004820152600960248201526827b7363c9022a7a09760b91b60448201526064016107ff565b610bcb610b8f85853361161d565b83838080601f01602080910402602001604051908101604052809392919081815260200183838082843760009201919091525061165592505050565b610c085760405162461bcd60e51b815260206004820152600e60248201526d24b73b30b634b2103a37b5b2b71760911b60448201526064016107ff565b600c5485610c1533611048565b610c1f91906124da565b1115610c615760405162461bcd60e51b815260206004820152601160248201527024b73b30b634b21038bab0b73a34ba3c9760791b60448201526064016107ff565b600b5485610c76600154600054036000190190565b610c8091906124da565b1115610cbe5760405162461bcd60e51b815260206004820152600d60248201526c27379036b7b932903632b33a1760991b60448201526064016107ff565b610cc8338661167f565b610cde85600d54610cd99190612506565b61169d565b60408051338152602081018790527f30385c845b448a36257a6a1716e6ad2e1bc2cbe333cde1e69fe849ad6511adfe910160405180910390a15050505050565b6008546001600160a01b03163314610d485760405162461bcd60e51b81526004016107ff906124a5565b61081061171c565b6008546001600160a01b03163314610d7a5760405162461bcd60e51b81526004016107ff906124a5565b600d55565b60606003805461067590612568565b6001600160a01b038216331415610db85760405163b06307db60e01b815260040160405180910390fd5b3360008181526007602090815260408083206001600160a01b03871680855290835292819020805460ff191686151590811790915590519081529192917f17307eab39ab6107e8899845ad3d59bd9653f200f220920489ca2b5937696c31910160405180910390a35050565b610e2f848484611219565b6001600160a01b0383163b15158015610e515750610e4f848484846117a4565b155b15610e6f576040516368d2bf6b60e11b815260040160405180910390fd5b50505050565b6060610e8082611184565b610e9d57604051630a14c4b560e41b815260040160405180910390fd5b6000610ea761189c565b9050805160001415610ec85760405180602001604052806000815250610ef3565b80610ed2846118ab565b604051602001610ee39291906123dd565b6040516020818303038152906040525b9392505050565b6008546001600160a01b03163314610f245760405162461bcd60e51b81526004016107ff906124a5565b600b5481610f39600154600054036000190190565b610f4391906124da565b1115610f885760405162461bcd60e51b815260206004820152601460248201527326b0bc1039bab838363c9032bc31b2b2b232b21760611b60448201526064016107ff565b60005b818110156107c5576000838383818110610fa757610fa7612614565b9050602002016020810190610fbc9190612032565b6001600160a01b031614156110055760405162461bcd60e51b815260206004820152600f60248201526e496e76616c6964206164647265737360881b60448201526064016107ff565b61103683838381811061101a5761101a612614565b905060200201602081019061102f9190612032565b600161167f565b80611040816125a3565b915050610f8b565b6001600160a01b038116600090815260056020526040812054600160401b90046001600160401b0316610660565b6008546001600160a01b031633146110a05760405162461bcd60e51b81526004016107ff906124a5565b60018110156110e45760405162461bcd60e51b815260206004820152601060248201526f1a5b9d985b1a59081b585e081b5a5b9d60821b60448201526064016107ff565b600c55565b6008546001600160a01b031633146111135760405162461bcd60e51b81526004016107ff906124a5565b6001600160a01b0381166111785760405162461bcd60e51b815260206004820152602660248201527f4f776e61626c653a206e6577206f776e657220697320746865207a65726f206160448201526564647265737360d01b60648201526084016107ff565b611181816115cb565b50565b600081600111158015611198575060005482105b8015610660575050600090815260046020526040902054600160e01b900460ff161590565b60008281526006602052604080822080546001600160a01b0319166001600160a01b0387811691821790925591518593918516917f8c5be1e5ebec7d5bd14f71427d1e84f3dd0314c0f7b2291e5b200ac8c7c3b92591a4505050565b6000611224826114a4565b9050836001600160a01b031681600001516001600160a01b03161461125b5760405162a1148160e81b815260040160405180910390fd5b6000336001600160a01b0386161480611279575061127985336105c6565b80611294575033611289846106f8565b6001600160a01b0316145b9050806112b457604051632ce44b5f60e11b815260040160405180910390fd5b6001600160a01b0384166112db57604051633a954ecd60e21b815260040160405180910390fd5b6112e7600084876111bd565b6001600160a01b038581166000908152600560209081526040808320805467ffffffffffffffff198082166001600160401b0392831660001901831617909255898616808652838620805493841693831660019081018416949094179055898652600490945282852080546001600160e01b031916909417600160a01b429092169190910217835587018084529220805491939091166113bb5760005482146113bb57805460208601516001600160401b0316600160a01b026001600160e01b03199091166001600160a01b038a16171781555b50505082846001600160a01b0316866001600160a01b03167fddf252ad1be2c89b69c2b068fc378daa952ba7f163c4a11628f55a4df523b3ef60405160405180910390a45b5050505050565b600854600160a01b900460ff166114575760405162461bcd60e51b815260206004820152601460248201527314185d5cd8589b194e881b9bdd081c185d5cd95960621b60448201526064016107ff565b6008805460ff60a01b191690557f5db9ee0a495bf2e6ff9c91a7834c1ba4fdd244a5e8aa4e537bd38aeae4b073aa335b6040516001600160a01b03909116815260200160405180910390a1565b604080516060810182526000808252602082018190529181019190915281806001111580156114d4575060005481105b156115b257600081815260046020908152604091829020825160608101845290546001600160a01b0381168252600160a01b81046001600160401b031692820192909252600160e01b90910460ff161515918101829052906115b05780516001600160a01b031615611547579392505050565b5060001901600081815260046020908152604091829020825160608101845290546001600160a01b038116808352600160a01b82046001600160401b031693830193909352600160e01b900460ff16151592810192909252156115ab579392505050565b611547565b505b604051636f96cda160e11b815260040160405180910390fd5b600880546001600160a01b038381166001600160a01b0319831681179093556040519116919082907f8be0079c531659141344cd1fd0a4f28419497f9722a3daafe3b4186f6b6457e090600090a35050565b600083833084604051602001611636949392919061245d565b6040516020818303038152906040528051906020012090509392505050565b600a546000906001600160a01b031661166e84846119a8565b6001600160a01b0316149392505050565b611699828260405180602001604052806000815250611a0b565b5050565b803410156116de5760405162461bcd60e51b815260206004820152600e60248201526d24b73b30b634b2103b30b63ab29760911b60448201526064016107ff565b8034111561118157336108fc6116f48334612525565b6040518115909202916000818181858888f19350505050158015611699573d6000803e3d6000fd5b600854600160a01b900460ff16156117695760405162461bcd60e51b815260206004820152601060248201526f14185d5cd8589b194e881c185d5cd95960821b60448201526064016107ff565b6008805460ff60a01b1916600160a01b1790557f62e78cea01bee320cd4e420270b5ea74000d11b0c9f74754ebdbfc544b05a2586114873390565b604051630a85bd0160e11b81526000906001600160a01b0385169063150b7a02906117d990339089908890889060040161240c565b602060405180830381600087803b1580156117f357600080fd5b505af1925050508015611823575060408051601f3d908101601f1916820190925261182091810190612298565b60015b61187e573d808015611851576040519150601f19603f3d011682016040523d82523d6000602084013e611856565b606091505b508051611876576040516368d2bf6b60e11b815260040160405180910390fd5b805181602001fd5b6001600160e01b031916630a85bd0160e11b1490505b949350505050565b60606009805461067590612568565b6060816118cf5750506040805180820190915260018152600360fc1b602082015290565b8160005b81156118f957806118e3816125a3565b91506118f29050600a836124f2565b91506118d3565b6000816001600160401b038111156119135761191361262a565b6040519080825280601f01601f19166020018201604052801561193d576020820181803683370190505b5090505b841561189457611952600183612525565b915061195f600a866125be565b61196a9060306124da565b60f81b81838151811061197f5761197f612614565b60200101906001600160f81b031916908160001a9053506119a1600a866124f2565b9450611941565b6000610ef382611a05856040517f19457468657265756d205369676e6564204d6573736167653a0a3332000000006020820152603c8101829052600090605c01604051602081830303815290604052805190602001209050919050565b90611a18565b6107c58383836001611a3c565b6000806000611a278585611c07565b91509150611a3481611c77565b509392505050565b6000546001600160a01b038516611a6557604051622e076360e81b815260040160405180910390fd5b83611a835760405163b562e8dd60e01b815260040160405180910390fd5b6001600160a01b038516600081815260056020908152604080832080546fffffffffffffffffffffffffffffffff1981166001600160401b038083168c018116918217600160401b67ffffffffffffffff1990941690921783900481168c01811690920217909155858452600490925290912080546001600160e01b031916909217600160a01b429092169190910217905580808501838015611b2f57506001600160a01b0387163b15155b15611bb8575b60405182906001600160a01b038916906000907fddf252ad1be2c89b69c2b068fc378daa952ba7f163c4a11628f55a4df523b3ef908290a4611b8060008884806001019550886117a4565b611b9d576040516368d2bf6b60e11b815260040160405180910390fd5b80821415611b35578260005414611bb357600080fd5b611bfe565b5b6040516001830192906001600160a01b038916906000907fddf252ad1be2c89b69c2b068fc378daa952ba7f163c4a11628f55a4df523b3ef908290a480821415611bb9575b50600055611400565b600080825160411415611c3e5760208301516040840151606085015160001a611c3287828585611e32565b94509450505050611c70565b825160401415611c685760208301516040840151611c5d868383611f1f565b935093505050611c70565b506000905060025b9250929050565b6000816004811115611c8b57611c8b6125fe565b1415611c945750565b6001816004811115611ca857611ca86125fe565b1415611cf65760405162461bcd60e51b815260206004820152601860248201527f45434453413a20696e76616c6964207369676e6174757265000000000000000060448201526064016107ff565b6002816004811115611d0a57611d0a6125fe565b1415611d585760405162461bcd60e51b815260206004820152601f60248201527f45434453413a20696e76616c6964207369676e6174757265206c656e6774680060448201526064016107ff565b6003816004811115611d6c57611d6c6125fe565b1415611dc55760405162461bcd60e51b815260206004820152602260248201527f45434453413a20696e76616c6964207369676e6174757265202773272076616c604482015261756560f01b60648201526084016107ff565b6004816004811115611dd957611dd96125fe565b14156111815760405162461bcd60e51b815260206004820152602260248201527f45434453413a20696e76616c6964207369676e6174757265202776272076616c604482015261756560f01b60648201526084016107ff565b6000807f7fffffffffffffffffffffffffffffff5d576e7357a4501ddfe92f46681b20a0831115611e695750600090506003611f16565b8460ff16601b14158015611e8157508460ff16601c14155b15611e925750600090506004611f16565b6040805160008082526020820180845289905260ff881692820192909252606081018690526080810185905260019060a0016020604051602081039080840390855afa158015611ee6573d6000803e3d6000fd5b5050604051601f1901519150506001600160a01b038116611f0f57600060019250925050611f16565b9150600090505b94509492505050565b6000806001600160ff1b03831681611f3c60ff86901c601b6124da565b9050611f4a87828885611e32565b935093505050935093915050565b828054611f6490612568565b90600052602060002090601f016020900481019282611f865760008555611fcc565b82601f10611f9f5782800160ff19823516178555611fcc565b82800160010185558215611fcc579182015b82811115611fcc578235825591602001919060010190611fb1565b50611fd8929150611fdc565b5090565b5b80821115611fd85760008155600101611fdd565b60008083601f84011261200357600080fd5b5081356001600160401b0381111561201a57600080fd5b602083019150836020828501011115611c7057600080fd5b60006020828403121561204457600080fd5b8135610ef381612640565b6000806040838503121561206257600080fd5b823561206d81612640565b9150602083013561207d81612640565b809150509250929050565b60008060006060848603121561209d57600080fd5b83356120a881612640565b925060208401356120b881612640565b929592945050506040919091013590565b600080600080608085870312156120df57600080fd5b84356120ea81612640565b935060208501356120fa81612640565b92506040850135915060608501356001600160401b038082111561211d57600080fd5b818701915087601f83011261213157600080fd5b8135818111156121435761214361262a565b604051601f8201601f19908116603f0116810190838211818310171561216b5761216b61262a565b816040528281528a602084870101111561218457600080fd5b82602086016020830137600060208483010152809550505050505092959194509250565b600080604083850312156121bb57600080fd5b82356121c681612640565b91506020830135801515811461207d57600080fd5b600080604083850312156121ee57600080fd5b82356121f981612640565b946020939093013593505050565b6000806020838503121561221a57600080fd5b82356001600160401b038082111561223157600080fd5b818501915085601f83011261224557600080fd5b81358181111561225457600080fd5b8660208260051b850101111561226957600080fd5b60209290920196919550909350505050565b60006020828403121561228d57600080fd5b8135610ef381612655565b6000602082840312156122aa57600080fd5b8151610ef381612655565b600080602083850312156122c857600080fd5b82356001600160401b038111156122de57600080fd5b6122ea85828601611ff1565b90969095509350505050565b60006020828403121561230857600080fd5b5035919050565b60008060008060006060868803121561232757600080fd5b8535945060208601356001600160401b038082111561234557600080fd5b61235189838a01611ff1565b9096509450604088013591508082111561236a57600080fd5b5061237788828901611ff1565b969995985093965092949392505050565b600081518084526123a081602086016020860161253c565b601f01601f19169290920160200192915050565b81835281816020850137506000828201602090810191909152601f909101601f19169091010190565b600083516123ef81846020880161253c565b83519083019061240381836020880161253c565b01949350505050565b6001600160a01b038581168252841660208201526040810183905260806060820181905260009061243f90830184612388565b9695505050505050565b6020815260006118946020830184866123b4565b6060815260006124716060830186886123b4565b6001600160a01b039485166020840152929093166040909101529392505050565b602081526000610ef36020830184612388565b6020808252818101527f4f776e61626c653a2063616c6c6572206973206e6f7420746865206f776e6572604082015260600190565b600082198211156124ed576124ed6125d2565b500190565b600082612501576125016125e8565b500490565b6000816000190483118215151615612520576125206125d2565b500290565b600082821015612537576125376125d2565b500390565b60005b8381101561255757818101518382015260200161253f565b83811115610e6f5750506000910152565b600181811c9082168061257c57607f821691505b6020821081141561259d57634e487b7160e01b600052602260045260246000fd5b50919050565b60006000198214156125b7576125b76125d2565b5060010190565b6000826125cd576125cd6125e8565b500690565b634e487b7160e01b600052601160045260246000fd5b634e487b7160e01b600052601260045260246000fd5b634e487b7160e01b600052602160045260246000fd5b634e487b7160e01b600052603260045260246000fd5b634e487b7160e01b600052604160045260246000fd5b6001600160a01b038116811461118157600080fd5b6001600160e01b03198116811461118157600080fdfea2646970667358221220300755508698c3f95cb73efb410c04ab7d9848c545c26fda713be876f6941ab564736f6c63430008060033",
  "devdoc": {
    "kind": "dev",
    "methods": {
      "approve(address,uint256)": {
        "details": "See {IERC721-approve}."
      },
      "balanceOf(address)": {
        "details": "See {IERC721-balanceOf}."
      },
      "getApproved(uint256)": {
        "details": "See {IERC721-getApproved}."
      },
      "isApprovedForAll(address,address)": {
        "details": "See {IERC721-isApprovedForAll}."
      },
      "name()": {
        "details": "See {IERC721Metadata-name}."
      },
      "owner()": {
        "details": "Returns the address of the current owner."
      },
      "ownerOf(uint256)": {
        "details": "See {IERC721-ownerOf}."
      },
      "paused()": {
        "details": "Returns true if the contract is paused, and false otherwise."
      },
      "renounceOwnership()": {
        "details": "Leaves the contract without owner. It will not be possible to call `onlyOwner` functions anymore. Can only be called by the current owner. NOTE: Renouncing ownership will leave the contract without an owner, thereby removing any functionality that is only available to the owner."
      },
      "safeTransferFrom(address,address,uint256)": {
        "details": "See {IERC721-safeTransferFrom}."
      },
      "safeTransferFrom(address,address,uint256,bytes)": {
        "details": "See {IERC721-safeTransferFrom}."
      },
      "setApprovalForAll(address,bool)": {
        "details": "See {IERC721-setApprovalForAll}."
      },
      "supportsInterface(bytes4)": {
        "details": "See {IERC165-supportsInterface}."
      },
      "symbol()": {
        "details": "See {IERC721Metadata-symbol}."
      },
      "tokenURI(uint256)": {
        "details": "See {IERC721Metadata-tokenURI}."
      },
      "totalSupply()": {
        "details": "Burned tokens are calculated here, use _totalMinted() if you want to count just minted tokens."
      },
      "transferFrom(address,address,uint256)": {
        "details": "See {IERC721-transferFrom}."
      },
      "transferOwnership(address)": {
        "details": "Transfers ownership of the contract to a new account (`newOwner`). Can only be called by the current owner."
      }
    },
    "version": 1
  },
  "userdoc": {
    "kind": "user",
    "methods": {},
    "version": 1
  },
  "storageLayout": {
    "storage": [
      {
        "astId": 1823,
        "contract": "contracts/MetaFoxesGenesis.sol:MetaFoxesGenesis",
        "label": "_currentIndex",
        "offset": 0,
        "slot": "0",
        "type": "t_uint256"
      },
      {
        "astId": 1825,
        "contract": "contracts/MetaFoxesGenesis.sol:MetaFoxesGenesis",
        "label": "_burnCounter",
        "offset": 0,
        "slot": "1",
        "type": "t_uint256"
      },
      {
        "astId": 1827,
        "contract": "contracts/MetaFoxesGenesis.sol:MetaFoxesGenesis",
        "label": "_name",
        "offset": 0,
        "slot": "2",
        "type": "t_string_storage"
      },
      {
        "astId": 1829,
        "contract": "contracts/MetaFoxesGenesis.sol:MetaFoxesGenesis",
        "label": "_symbol",
        "offset": 0,
        "slot": "3",
        "type": "t_string_storage"
      },
      {
        "astId": 1834,
        "contract": "contracts/MetaFoxesGenesis.sol:MetaFoxesGenesis",
        "label": "_ownerships",
        "offset": 0,
        "slot": "4",
        "type": "t_mapping(t_uint256,t_struct(TokenOwnership)1812_storage)"
      },
      {
        "astId": 1839,
        "contract": "contracts/MetaFoxesGenesis.sol:MetaFoxesGenesis",
        "label": "_addressData",
        "offset": 0,
        "slot": "5",
        "type": "t_mapping(t_address,t_struct(AddressData)1821_storage)"
      },
      {
        "astId": 1843,
        "contract": "contracts/MetaFoxesGenesis.sol:MetaFoxesGenesis",
        "label": "_tokenApprovals",
        "offset": 0,
        "slot": "6",
        "type": "t_mapping(t_uint256,t_address)"
      },
      {
        "astId": 1849,
        "contract": "contracts/MetaFoxesGenesis.sol:MetaFoxesGenesis",
        "label": "_operatorApprovals",
        "offset": 0,
        "slot": "7",
        "type": "t_mapping(t_address,t_mapping(t_address,t_bool))"
      },
      {
        "astId": 7,
        "contract": "contracts/MetaFoxesGenesis.sol:MetaFoxesGenesis",
        "label": "_owner",
        "offset": 0,
        "slot": "8",
        "type": "t_address"
      },
      {
        "astId": 122,
        "contract": "contracts/MetaFoxesGenesis.sol:MetaFoxesGenesis",
        "label": "_paused",
        "offset": 20,
        "slot": "8",
        "type": "t_bool"
      },
      {
        "astId": 1337,
        "contract": "contracts/MetaFoxesGenesis.sol:MetaFoxesGenesis",
        "label": "baseURI",
        "offset": 0,
        "slot": "9",
        "type": "t_string_storage"
      },
      {
        "astId": 1339,
        "contract": "contracts/MetaFoxesGenesis.sol:MetaFoxesGenesis",
        "label": "signer",
        "offset": 0,
        "slot": "10",
        "type": "t_address"
      },
      {
        "astId": 1341,
        "contract": "contracts/MetaFoxesGenesis.sol:MetaFoxesGenesis",
        "label": "maxSupply",
        "offset": 0,
        "slot": "11",
        "type": "t_uint256"
      },
      {
        "astId": 1343,
        "contract": "contracts/MetaFoxesGenesis.sol:MetaFoxesGenesis",
        "label": "maxMint",
        "offset": 0,
        "slot": "12",
        "type": "t_uint256"
      },
      {
        "astId": 1345,
        "contract": "contracts/MetaFoxesGenesis.sol:MetaFoxesGenesis",
        "label": "price",
        "offset": 0,
        "slot": "13",
        "type": "t_uint256"
      }
    ],
    "types": {
      "t_address": {
        "encoding": "inplace",
        "label": "address",
        "numberOfBytes": "20"
      },
      "t_bool": {
        "encoding": "inplace",
        "label": "bool",
        "numberOfBytes": "1"
      },
      "t_mapping(t_address,t_bool)": {
        "encoding": "mapping",
        "key": "t_address",
        "label": "mapping(address => bool)",
        "numberOfBytes": "32",
        "value": "t_bool"
      },
      "t_mapping(t_address,t_mapping(t_address,t_bool))": {
        "encoding": "mapping",
        "key": "t_address",
        "label": "mapping(address => mapping(address => bool))",
        "numberOfBytes": "32",
        "value": "t_mapping(t_address,t_bool)"
      },
      "t_mapping(t_address,t_struct(AddressData)1821_storage)": {
        "encoding": "mapping",
        "key": "t_address",
        "label": "mapping(address => struct ERC721A.AddressData)",
        "numberOfBytes": "32",
        "value": "t_struct(AddressData)1821_storage"
      },
      "t_mapping(t_uint256,t_address)": {
        "encoding": "mapping",
        "key": "t_uint256",
        "label": "mapping(uint256 => address)",
        "numberOfBytes": "32",
        "value": "t_address"
      },
      "t_mapping(t_uint256,t_struct(TokenOwnership)1812_storage)": {
        "encoding": "mapping",
        "key": "t_uint256",
        "label": "mapping(uint256 => struct ERC721A.TokenOwnership)",
        "numberOfBytes": "32",
        "value": "t_struct(TokenOwnership)1812_storage"
      },
      "t_string_storage": {
        "encoding": "bytes",
        "label": "string",
        "numberOfBytes": "32"
      },
      "t_struct(AddressData)1821_storage": {
        "encoding": "inplace",
        "label": "struct ERC721A.AddressData",
        "members": [
          {
            "astId": 1814,
            "contract": "contracts/MetaFoxesGenesis.sol:MetaFoxesGenesis",
            "label": "balance",
            "offset": 0,
            "slot": "0",
            "type": "t_uint64"
          },
          {
            "astId": 1816,
            "contract": "contracts/MetaFoxesGenesis.sol:MetaFoxesGenesis",
            "label": "numberMinted",
            "offset": 8,
            "slot": "0",
            "type": "t_uint64"
          },
          {
            "astId": 1818,
            "contract": "contracts/MetaFoxesGenesis.sol:MetaFoxesGenesis",
            "label": "numberBurned",
            "offset": 16,
            "slot": "0",
            "type": "t_uint64"
          },
          {
            "astId": 1820,
            "contract": "contracts/MetaFoxesGenesis.sol:MetaFoxesGenesis",
            "label": "aux",
            "offset": 24,
            "slot": "0",
            "type": "t_uint64"
          }
        ],
        "numberOfBytes": "32"
      },
      "t_struct(TokenOwnership)1812_storage": {
        "encoding": "inplace",
        "label": "struct ERC721A.TokenOwnership",
        "members": [
          {
            "astId": 1807,
            "contract": "contracts/MetaFoxesGenesis.sol:MetaFoxesGenesis",
            "label": "addr",
            "offset": 0,
            "slot": "0",
            "type": "t_address"
          },
          {
            "astId": 1809,
            "contract": "contracts/MetaFoxesGenesis.sol:MetaFoxesGenesis",
            "label": "startTimestamp",
            "offset": 20,
            "slot": "0",
            "type": "t_uint64"
          },
          {
            "astId": 1811,
            "contract": "contracts/MetaFoxesGenesis.sol:MetaFoxesGenesis",
            "label": "burned",
            "offset": 28,
            "slot": "0",
            "type": "t_bool"
          }
        ],
        "numberOfBytes": "32"
      },
      "t_uint256": {
        "encoding": "inplace",
        "label": "uint256",
        "numberOfBytes": "32"
      },
      "t_uint64": {
        "encoding": "inplace",
        "label": "uint64",
        "numberOfBytes": "8"
      }
    }
  }
}